S01D00006261725F67726170685F6E6F696E74735F736B656C2E7372656359
S11300000C9446000C9450000C9450000C94500036
S11300100C9450000C9450000C9450000C9450001C
S11300200C9450000C9450000C9450000C9450000C
S11300300C9450000C9450000C9450000C945000FC
S11300400C9450000C9450000C9450000C945000EC
S11300500C9450000C9450000C9450000C945000DC
S11300600C9450000C9450000C9450000C945000CC
S11300700C9450000C9450000C9450000C945000BC
S11300800C9450000C9450000C94500011241FBE8A
S1130090CFEFD0E1DEBFCDBF0E9459000C94960093
S11300A00C94000087E087BB80E58DB981E08EB9B0
S11300B0089587E087BB80E58DB981E08EB984E03F
S11300C08FB9779BFECFC09AC0988F5F09F481E007
S11300D02FEF31EE94E0215030409040E1F700C022
S11300E000002FEF31EE94E0215030409040E1F7D2
S11300F000C000002FEF31EE94E0215030409040DA
S1130100E1F700C000002FEF31EE94E021503040C1
S11301109040E1F700C000002FEF31EE94E0215051
S113012030409040E1F700C00000CACFF894FFCF00
S9030000FC
