:100000000C9446000C9458000C9458000C94580022
:100010000C9458000C9458000C9458000C94580000
:100020000C9458000C9458000C9458000C945800F0
:100030000C9458000C9458000C9458000C945800E0
:100040000C9458000C9458000C9458000C945800D0
:100050000C9458000C9458000C9458000C945800C0
:100060000C9458000C9458000C9458000C945800B0
:100070000C9458000C9458000C9458000C945800A0
:100080000C9458000C9458000C94580011241FBE76
:10009000CFEFD0E1DEBFCDBF21E0A0E0B1E001C0F5
:1000A0001D92AC35B207E1F70E946B030C947A0401
:1000B0000C940000E1E6F0E0808188608083E2E655
:1000C000F0E08081877F808387B3876087BBC19A98
:1000D00080E58DB981E08EB9089591E0811101C06C
:1000E00090E09FB9779BFECF6FB9779BFECF809151
:1000F000620088608093620080916200877F8093B5
:1001000062008FE99FE00197F1F700C000000895B9
:1001100021E02FB9779BFECF20910001FC01E20F77
:10012000F11D80818FB9779BFECF8091620088603E
:100130008093620080916200877F8093620080914B
:1001400000018F5F80930001803181F0803209F0DF
:10015000089585ED8A95F1F700004CED55E062E0D9
:1001600080E00E946D0010920001089585ED8A954F
:10017000F1F700004CED55E060EC80E00E946D006E
:1001800080910001E3CFEF92FF920F931F93CF93E3
:10019000DF931F92CDB7DEB7182F660F660F660F7D
:1001A000605C48EE53E080E099830E946D00E12E90
:1001B0009981F92E8701085F1F4FF70161917F0137
:1001C00044E650E081E00E946D00E016F106A9F7D8
:1001D0000F90DF91CF911F910F91FF90EF900895B5
:1001E00090E4899F600D1124605C48EE53E080E04C
:1001F0000C946D00CF93882309F43DC0C82F84363A
:10020000A8F48A30F8F48DECC89F812D11248695CE
:10021000869586956C2F2AE0829F60191124605D77
:1002200044E650E081E0CF910C946D0069E2869F36
:10023000612D112462956F70605D44E650E081E0AD
:100240000E946D0089E2C89F812D112482958F70D4
:100250009C2F24E6829F901911246DEC969F612DAE
:100260001124669566956695605D44E650E081E0F0
:100270000E946D00C8CF44E650E060E381E0CF917A
:100280000C946D00CF9387FD03C0CF910C94FA00BE
:10029000C82F44E650E06DE281E00E946D008C2F93
:1002A0008195CF910C94FA0048EE53E06EE080E027
:1002B0000C946D0048EE53E06CE080E00C946D000F
:1002C00048EE53E06EE180E00C946D0048EE53E0A0
:1002D00068E180E00C946D00E2E6F0E080818860E7
:1002E00080838081877F8083089540ED57E061E0BF
:1002F00080E00C946D004CED55E062E080E00C94E1
:100300006D004CED55E060EC80E00C946D00CF93F7
:10031000C0E144E650E060E281E00E946D00C1501F
:10032000C1F7CF91089544E650E0682F81E00C9426
:100330006D000F931F93CF938C0140E050E0C0E01D
:10034000F801E40FF51F44E650E0608181E00E946F
:100350006D00CF5F4C2F50E0F80101900020E9F7CD
:100360009F01201B310B225031092417350740F71C
:10037000CF911F910F9108958FEF99EF0197F1F7AA
:1003800000C0000088E08093610048E55BE160E325
:1003900080E00E946D0048E55BE160E380E00E9440
:1003A0006D0048E55BE160E380E00E946D0048E895
:1003B00053E168E380E00E946D0048E853E168E0A3
:1003C00080E00E946D0048E853E161E080E00E9417
:1003D0006D0048E853E166E080E00E946D0045E072
:1003E00050E06CE080E00C946D008F929F92AF9291
:1003F000BF92CF92DF92EF92FF920F931F93CF9312
:10040000DF93CDB7DEB769970FB6F894DEBF0FBEA6
:10041000CDBFF42E122F002359F04B015C0188242C
:10042000B7FC83949924AA24BB24082D97FD8DC082
:10043000112309F482C09E012F5F3F4F69015901CA
:1004400088248A94810E912C3FEF831A930A8C0C96
:100450009D1C2AE030E040E050E00E94F003E62FCF
:100460002A8B3B8B4C8B5D8B6A897B898C899D8920
:1004700020E32E0FF50121935F01E815F90549F7F7
:10048000BB24B394B10EF601E10FF11D2EE22083DF
:100490002AE030E040E050E00E94F003E62F2A8B93
:1004A0003B8B4C8B5D8B6E8B7F8B888F998F6A8992
:1004B0007B898C899D8911E01B0DD601AB0DB11D87
:1004C000E05DEC93B12E611571058105910501F791
:1004D000FF2061F0E11037C080E21F1538F4F6010B
:1004E000E10FF11D80831F5F1F11F9CF002331F051
:1004F000F601E10FF11D8DE280831F5F1150F601BF
:10050000E10FF11D48EE53E0608181E00E946D0033
:100510001111F4CF69960FB6F894DEBF0FBECDBFB0
:10052000DF91CF911F910F91FF90EF90DF90CF90CF
:10053000BF90AF909F908F900895B12C9E012F5F38
:100540003F4F6901A5CF80E3C8CF90958095709506
:1005500061957F4F8F4F9F4F6BCF5F926F927F92CE
:100560008F929F92AF92BF92CF92DF92EF92FF92C3
:100570000F931F93CF93DF93CDB7DEB761970FB67D
:10058000F894DEBF0FBECDBFA62E542E622E792E5C
:10059000771C7724771CB72CC72CD12CEE27FF278C
:1005A000EC19FD098E279F27FC01EC0DFD1D44234E
:1005B00009F48CC0CE0101967C018C0188248A94B8
:1005C000840E912C9FEF891A990A8E0C9F1C6AE069
:1005D00070E0CF010E94DC03262FE22FF72F805D11
:1005E000D8018D938D01A815B90589F701E0050D96
:1005F000D701A50DB11D8EE28C936AE070E0CF01AA
:100600000E94DC03262FE22FF72F11E0100FD701F5
:10061000A00FB11D805D8C93012F309771F7611091
:1006200015C0772039F011E0100FF701E00FF11D30
:100630008DE28083AA2041F1812F90E02A2D30E0C5
:10064000821793070CF5B12C40E20CC0AA20A1F050
:10065000812F90E02A2D30E02C193D098217930755
:100660005CF440E31F5FF701E80FF91F4083812F1F
:1006700090E082179307B4F3BB2031F0F701E10F4C
:10068000F11D8DE280831F5F1150F701E10FF11D15
:1006900048EE53E0608181E00E946D001111F4CFBB
:1006A00061960FB6F894DEBF0FBECDBFDF91CF913C
:1006B0001F910F91FF90EF90DF90CF90BF90AF9080
:1006C0009F908F907F906F905F90089500E0CE0193
:1006D00001967C0192CF0E945A000E94BC010E94A8
:1006E0007501809161008F77809361008091620035
:1006F0008F778093620087E487B98FE886B9C4E674
:10070000369A349BFECF349A84B195B1909302010E
:10071000809301016DEC70E00E94DC039B0160930B
:1007200028017093290180932A0190932B014AE0BC
:1007300068E171E0C9010E94450480912A0190910D
:100740002B016DEC70E09C01C29FC001C39F900D16
:1007500011240E94DC039B01609314017093150126
:1007600080931601909317014AE063E071E0C9019C
:100770000E94450488E191E00E9499018EE20E9466
:10078000930183E091E00E949901109213013FEFE1
:1007900080E792E0315080409040E1F700C00000D7
:1007A000809113018F5F809313018B3080F30E943F
:1007B00075010E947B01A4CF97FB072E16F40094CD
:1007C00007D077FD09D00E940F0407FC05D03EF446
:1007D000909581959F4F0895709561957F4F0895ED
:1007E000052E97FB1EF400940E94070457FD07D0C6
:1007F0000E94230407FC03D04EF40C940704509588
:100800004095309521953F4F4F4F5F4F08959095FC
:100810008095709561957F4F8F4F9F4F0895AA1BCC
:10082000BB1B51E107C0AA1FBB1FA617B70710F0DB
:10083000A61BB70B881F991F5A95A9F7809590950D
:10084000BC01CD010895A1E21A2EAA1BBB1BFD011C
:100850000DC0AA1FBB1FEE1FFF1FA217B307E4079F
:10086000F50720F0A21BB30BE40BF50B661F771FF7
:10087000881F991F1A9469F76095709580959095D7
:100880009B01AC01BD01CF010895BB274A3031F473
:10089000992322F4BDE2909581959F4F0C945104C9
:1008A000BB27FB015527AA27880F991FAA1FA4174A
:1008B00010F0A41B83955051B9F7A05DAA3308F03E
:1008C000A95DA193009779F7B111B1931192CB0172
:1008D0000C946A04DC01FC01672F71917723E1F726
:1008E000329704C07C916D9370836291AE17BF07FD
:0808F000C8F30895F894FFCF4E
:00000001FF
