:100000000C9446000C9458000C9458000C94580022
:100010000C9458000C9458000C9458000C94580000
:100020000C9458000C9458000C9458000C945800F0
:100030000C9458000C9458000C9458000C945800E0
:100040000C9458000C9458000C9458000C945800D0
:100050000C9458000C9458000C9458000C945800C0
:100060000C9458000C9458000C9458000C945800B0
:100070000C9458000C9458000C9458000C945800A0
:100080000C9458000C9458000C94580011241FBE76
:10009000CFEFD0E1DEBFCDBF21E0A0E0B1E001C0F5
:1000A0001D92A230B207E1F70E9471000C94B100DA
:1000B0000C94000040B32091000130910101220F07
:1000C000331F306E842F817090E0282B392B3093B2
:1000D00001012093000181E02115304F09F080E0FB
:1000E00008958FEF87BBE0E0F0E060E070E05AE059
:1000F0000CC06A30710529F1EA30F10571F183EF26
:1001000091E00197F1F700C0000040B38091000139
:1001100090910101880F991F906E242F217030E07B
:10012000822B932B90930101809300018115904FB6
:1001300001F788B38F5F88BB6F5F7F4F6A307105AF
:10014000D9F688B3852788BB319688B3805F88BB92
:1001500060E070E0EA30F10591F618BAE0E0F0E016
:06016000CECFF894FFCFA2
:00000001FF
