S00C00006C6162342E73726563B5
S11300000C9446000C9465000C9465000C946500F7
S11300100C9465000C9465000C9465000C946500C8
S11300200C9465000C9465000C9465000C946500B8
S11300300C94AF020C9465000C9465000C9465005C
S11300400C94C1020C9465000C9465000C9465003A
S11300500C9465000C94A5020C9465000C94650046
S11300600C9465000C9465000C9465000C94650078
S11300700C9465000C9465000C9465000C94650068
S11300800C9465000C9465000C94650011241FBE4B
S1130090CFEFD0E1DEBFCDBF11E0A0E0B1E0E4E2FC
S11300A0FAE100E00BBF02C007900D92AC32B10739
S11300B0D9F721E0ACE2B1E001C01D92A43AB20745
S11300C0E1F70E9481070C94100D0C940000E1E606
S11300D0F0E0808188608083E2E6F0E08081877FC1
S11300E0808387E087BB82E088BB80E58DB981E0AF
S11300F08EB908951FB8779BFECF8FB10895482F0E
S1130100E82FF0E099B3EE0FFF1FE05CFE4F208173
S11301103181220F331F306E892F90E002C09595F4
S113012087954A95E2F781709927282B392B3183DB
S1130130208381E02115304F09F080E00895CF93AA
S1130140DF939091320191115AC03DEC839FA12D10
S11301501124A695A695A6955AE0A59F8019112469
S113016090E0A39F312D11243695369536955AE0AB
S1130170359FA0191124B0E03DEC639FE12D1124BB
S1130180E695E695E6955AE0E59F60191124C62F99
S1130190D0E0C050DF4F588150937F01E39F312D51
S11301A011243695369536955AE0359FE019112479
S11301B0F0E0E050FF4F308130938001FC01E050CB
S11301C0FF4F808180938201A050BF4F8C91809318
S11301D08301442381F080910A01809381012223C9
S11301E039F090910B0180918101892380938101E1
S11301F0DF91CF9108958FEF80938101F0CF882311
S113020081F08D3008F4A1CF8C503DEC839FA12D5B
S11302101124A695A695A6959AE0A99F8019112464
S11302209FCFA1E0B0E082E090E0A6CF811104C0AE
S113023081E080932C010895813039F560910C019F
S113024070910D0180910E0190910F012AE939E915
S113025049E15FE30E94E90887FF48C060910C010F
S113026070910D0180910E0190910F012DEC3CECE9
S11302704CEC5DE30E947D0860930C0170930D01CA
S113028080930E0190930F010895823081F560915F
S11302900C0170910D0180910E0190910F012DECD4
S11302A03CEC4CE45EE30E9492091816FCF4609165
S11302B00C0170910D0180910E0190910F012DECB4
S11302C03CEC4CEC5DE30E947C0860930C01709361
S11302D00D0180930E0190930F010895873031F43E
S11302E09091340181E0892780933401089583300B
S11302F011F580913001882351F08091350180936C
S11303002D018091360180932E011092300190913D
S1130310310181E089278093310180913101882363
S113032029F081E191E00E94450508950E940B05A2
S11303300E9416050895843039F49091300181E0CB
S11303408927809330010895853039F490913201E2
S113035081E08927809332010895863009F0BECF69
S113036080913401882311F2809135018093380102
S1130370809136018093390110923A011092340130
S113038008958FB9779BFECF929A92980895CF9350
S1130390DF9300D000D0CDB7DEB71E9A1D988FE949
S11303A09FE00197F1F700C000001D9A1E981FB846
S11303B0779BFECF8FB1982F91709983982F92706D
S11303C09B83982F94709A8388708C8310923F013A
S11303D080913F01823008F0B1C092E06AC0809100
S11303E03F01E1E0F0E0EC0FFD1FE80FF11D80811B
S11303F0E92FF0E0EB5CFE4F811188C080818F5FB4
S11304008083E0913F01F0E080913F01A3E0B0E000
S1130410AC0FBD1FA80FB11D8C91EF5AFE4F808306
S113042020913F01E0913F01F0E0EB58FE4F8081C5
S1130430E1E0F0E0EC0FFD1FE20FF11D2081281731
S1130440F9F080913F01E1E0F0E0EC0FFD1FE80FCF
S1130450F11D8081882309F45DC080913F01E3E0B0
S1130460F0E0EC0FFD1FE80FF11D8081E92FF0E0B3
S1130470EB5CFE4F882309F45DC080818F5F80832D
S1130480E0913F01F0E080913F01A1E0B0E0AC0FCA
S1130490BD1FA80FB11D8C91EB58FE4F8083809136
S11304A03F018F5F80933F0180913F01823008F0CC
S11304B045C0915020913F01E0913F01F0E0EF5A97
S11304C0FE4F8081E3E0F0E0EC0FFD1FE20FF11D31
S11304D02081281709F495CF80913F01E3E0F0E0F3
S11304E0EC0FFD1FE80FF11D8081811178CF809101
S11304F03F01E1E0F0E0EC0FFD1FE80FF11D80810A
S1130500E92FF0E0EB5CFE4F811178CF80818150C0
S1130510808377CF80913F01E3E0F0E0EC0FFD1F93
S1130520E80FF11D8081E92FF0E0EB5CFE4F88239A
S113053009F4A3CF808181508083A2CF0F900F90C4
S11305400F900F90DF91CF9108951F920F920FB6E5
S11305500F9211240F900FBE0F901F9018951F92A9
S11305600F920FB60F9211248F939F9395B383E04C
S1130570892785BB9F918F910F900FBE0F901F907D
S113058018951F920F920FB60F9211240BB60F926B
S11305901F932F933F934F935F936F937F938F9307
S11305A09F93AF93BF93CF93DF93EF93FF93809188
S11305B03C0190913D01019690933D0180933C0153
S11305C080913B018F5F80933B0180913B0180913F
S11305D03C0190913D018F719927892B31F49091C1
S11305E0330181E089278093330180913C0190910C
S11305F03D018038910509F4D2C0809138018C30D6
S11306000CF471C081E080933E01D8B3CBB3109158
S11306103F011ABA8FEF8BBB80E788BB10923F0172
S113062080913F01883050F02CC080913F018F5F52
S113063080933F0180913F01883018F540913F013C
S1130640E42FF0E099B3EE0FFF1FE05CFE4F208132
S11306503181220F331F306E892F90E002C09595AF
S113066087954A95E2F781709927822B932B918382
S113067080838115904FC9F680913F010E94160135
S1130680D4CF81E088BB8FEF8ABB80913101873062
S113069009F43FC0809131018FB9779BFECF929AC4
S11306A092988091340190913001892BF9F4109340
S11306B03F01D8BB8FEF8ABBCBBBFF91EF91DF919A
S11306C0CF91BF91AF919F918F917F916F915F91E6
S11306D04F913F912F911F910F900BBE0F900FBE22
S11306E00F901F90189510923E018FCF0E94C70162
S11306F0809136018C330CF081C087FD92C08091CB
S1130700350188310CF484C01092350110923E01F9
S1130710CECF80912C01882309F4BCCF84B38C7F85
S113072084BB10922C01809131018170809331013E
S11307308091380180932D018091390180932E019D
S113074080913A0180932F0180912F01865F8093DD
S11307502F0180912F018D3308F49CCF80912F01BC
S11307608C5380932F0180912E018F5F80932E01F3
S113077080912E018D3308F48DCF80912E018C53FE
S113078080932E0180912D018F5F80932D018091A4
S11307902D01893108F47ECF10922D017BCF8091F9
S11307A03A018F5F80933A019091100181E089278B
S11307B08093100110923D0110923C0180913A0106
S11307C08C3309F01ACF10923A01809139018F5F6E
S11307D080933901809139018C3309F00ECF109246
S11307E03901809138018F5F8093380180913801FD
S11307F0883109F002CF10923801FFCE10923601F1
S1130800809135018F5F8093350188310CF07CCF66
S113081087FD10C08D300CF479CF81E080933E01C8
S113082046CF8BE3809336018091350181508093CC
S1130830350167CF87E180933501EFCF91E08111D6
S113084001C090E09FB9779BFECF6FB9779BFECF35
S11308508091620088608093620080916200877F4B
S1130860809362000895CF93C09150018C0F911D25
S1130870FC01608181E00E941E0481E08C0F809362
S113088050018031A1F0803211F0CF910895E5ED4F
S1130890EA95F1F7000060E880E00E941E04F5ED9F
S11308A0FA95F1F7000010925001CF910895F5EDFB
S11308B0FA95F1F7000060EC80E00E941E0485EDDB
S11308C08A95F1F7000080915001DDCFEF92FF92FD
S11308D00F931F93CF93DF931F92CDB7DEB7182FDB
S11308E0660F660F660F605C80E099830E941E04A9
S11308F085ED8A95F1F70000E12E9981F92E8701A3
S1130900085F1F4FF70161917F0181E00E941E047F
S1130910F5EDFA95F1F70000E016F10699F70F905E
S1130920DF91CF911F910F91FF90EF90089590E484
S1130930899F600D1124605C80E00C941E04CF93A9
S11309408823B9F1C82F843698F48A30D8F48DEC12
S1130950C89F812D11248695869586956C2F2AE053
S1130960829F60191124605D81E0CF910C941E0474
S113097069E2869F612D112462956F70605D81E04C
S11309800E941E0489E2C89F812D112482958F70D4
S11309909C2F24E6829F901911246DEC969F612D63
S11309A01124669566956695605D81E00E941E043B
S11309B0CECF60E381E0CF910C941E04CF9387FDEA
S11309C003C0CF910C949F04C82F6DE281E00E9474
S11309D01E0485ED8A95F1F700008C2F8195CF9147
S11309E00C949F046EE080E00C941E046CE080E0A4
S11309F00C941E046EE180E00C941E0468E180E017
S1130A000C941E04E2E6F0E080818860808380819B
S1130A10877F8083089561E080E00E941E048FE157
S1130A209CE10197F1F700C00000089562E080E0C6
S1130A300E941E048FE697E10197F1F700C00000C1
S1130A40089560EC80E00E941E0485ED8A95F1F71C
S1130A500000089560E880E00E941E0485ED8A95F8
S1130A60F1F700000895CF93C0E160E281E00E94B5
S1130A701E0485ED8A95F1F70000C150B1F7CF91BE
S1130A800895682F81E00C941E040F931F93CF9355
S1130A908C0140E050E0C0E0F801E40FF51F6081F4
S1130AA081E00E941E0485ED8A95F1F70000CF5F76
S1130AB04C2F50E0F80101900020E9F79F01201B22
S1130AC0310B225031092417350730F7CF911F918C
S1130AD00F9108958FEF99EF0197F1F700C000008F
S1130AE0E1E6F0E080818860808360E380E00E943A
S1130AF01E048FE59DE60197F1F700C0000060E356
S1130B0080E00E941E048FE59DE60197F1F700C086
S1130B10000060E380E00E941E048FE59DE60197DB
S1130B20F1F700C0000068E380E00E941E048FE13A
S1130B309EE40197F1F700C0000068E080E00E94A5
S1130B401E048FE19EE40197F1F700C0000061E00C
S1130B5080E00E941E048FE19EE40197F1F700C03B
S1130B60000066E080E00E941E048FE19EE401978D
S1130B70F1F700C000006CE080E00E941E048FE1E9
S1130B809EE40197F1F700C0000008958F929F92B0
S1130B90AF92BF92CF92DF92EF92FF920F931F9387
S1130BA0CF93DF93CDB7DEB769970FB6F894DEBF66
S1130BB00FBECDBFF42E122F002359F04B015C0160
S1130BC08824B7FC83949924AA24BB24082D97FD78
S1130BD08FC0112309F484C09E012F5F3F4F690128
S1130BE0590188248A94810E912C3FEF831A930A29
S1130BF08C0C9D1C2AE030E040E050E00E94270865
S1130C00E62F2A8B3B8B4C8B5D8B6A897B898C8985
S1130C109D8920E32E0FF50121935F01E815F90565
S1130C2049F7BB24B394B10EF601E10FF11D2EE296
S1130C3020832AE030E040E050E00E942708E62FBD
S1130C402A8B3B8B4C8B5D8B6E8B7F8B888F998F24
S1130C506A897B898C899D8911E01B0DD601AB0DB6
S1130C60B11DE05DEC93B12E61157105810591050F
S1130C7001F7FF2061F0E11039C080E21F1538F45C
S1130C80F601E10FF11D80831F5F1F11F9CF0023CF
S1130C9031F0F601E10FF11D8DE280831F5F1150E9
S1130CA0F601E10FF11D608181E00E941E0435ED23
S1130CB03A95F1F700001111F2CF69960FB6F89446
S1130CC0DEBF0FBECDBFDF91CF911F910F91FF907B
S1130CD0EF90DF90CF90BF90AF909F908F9008954A
S1130CE0B12C9E012F5F3F4F6901A3CF80E3C6CF94
S1130CF090958095709561957F4F8F4F9F4F69CFE9
S1130D005F926F927F928F929F92AF92BF92CF9297
S1130D10DF92EF92FF920F931F93CF93DF93CDB7A0
S1130D20DEB761970FB6F894DEBF0FBECDBF662E57
S1130D30142F592E551C5524551C752CA52CB12C3B
S1130D40222733272A193B09822793279C012A0D3E
S1130D503B1D442309F490C0CE0101967C016C0133
S1130D6088248A94840E912C9FEF891A990A8E0CF8
S1130D709F1C6AE070E0C9010E941308462F242FCB
S1130D80372F805DF60181936F01E815F90589F726
S1130D90DD24D394D10EF701E10FF11D8EE280839F
S1130DA06AE070E0C9010E941308462F242F372FF0
S1130DB011E01D0DF701ED0DF11D805D8083D12E35
S1130DC02115310569F7011115C0552039F011E0DD
S1130DD01D0DF701ED0DF11D8DE28083662041F1BB
S1130DE0812F90E0262D30E0821793070CF5712CAB
S1130DF040E20CC06620A1F0812F90E0262D30E067
S1130E002A193B09821793075CF440E31F5FF7013B
S1130E10E80FF91F4083812F90E082179307B4F302
S1130E20772031F0F701E10FF11D8DE280831F5F20
S1130E301150F701E10FF11D608181E00E941E0451
S1130E4095ED9A95F1F700001111F2CF61960FB666
S1130E50F894DEBF0FBECDBFDF91CF911F910F91EC
S1130E60FF90EF90DF90CF90BF90AF909F908F90C6
S1130E707F906F905F900895D12CCE0101967C01F4
S1130E808FCFFC011082118212820895FC018081AF
S1130E901F928F9381811F928F9382811F928F93D0
S1130EA08DE191E09F938F937F936F930E94290A22
S1130EB08DB79EB70A960FB6F8949EBF0FBE8DBF2E
S1130EC00895FC0180818F5F80838C3390F481814D
S1130ED08C33A8F0118282818F5F9BEA899F912DC8
S1130EE0112492959F7028E1929F80191124828386
S1130EF00895108281818F5F81838C3358F78281BA
S1130F00ECCF8091610088608093610080916200E1
S1130F10877F8093620087E087BB82E088BB80E59F
S1130F208DB981E08EB90E946A050E940B0587B7CE
S1130F30816187BF83B7816083BF80B7886080BFCA
S1130F401FBC8AE08EBD87EE93E09BBD8ABD85B54C
S1130F508F6685BD82E880938B008AE180938A0046
S1130F6060910C0170910D0180910E0190910F011F
S1130F7020E030E040E757E40E9497090E94EE0821
S1130F80709387006093860080E090EF90938100D7
S1130F9080938000809161008F77809361008091BD
S1130FA062008F778093620087E487B98FE886B9FF
S1130FB087B3806787BB84B384BB81B38FEF81BB66
S1130FC092B182B91E9A369A349BFECF349A84B178
S1130FD095B190935401809353014AE065E571E023
S1130FE00E94040A85E591E00E94450510923F01A4
S1130FF080913F018B3090F42FEF80E792E02150F5
S113100080409040E1F700C0000080913F018F5F75
S113101080933F0180913F018B3070F30E940B0558
S11310200E941605D0CF97FB072E16F4009407D024
S113103077FD09D00E94460807FC05D03EF4909540
S113104081959F4F0895709561957F4F0895052E62
S113105097FB1EF400940E943E0857FD07D00E949F
S11310605A0807FC03D04EF40C943E085095409562
S1131070309521953F4F4F4F5F4F08959095809540
S1131080709561957F4F8F4F9F4F0895AA1BBB1B8F
S113109051E107C0AA1FBB1FA617B70710F0A61B74
S11310A0B70B881F991F5A95A9F780959095BC0195
S11310B0CD010895A1E21A2EAA1BBB1BFD010DC090
S11310C0AA1FBB1FEE1FFF1FA217B307E407F507F4
S11310D020F0A21BB30BE40BF50B661F771F881FD0
S11310E0991F1A9469F760957095809590959B0166
S11310F0AC01BD01CF0108955058BB27AA270E9417
S113110094080C9458090E944A0938F00E94510925
S113111020F039F49F3F19F426F40C9447090EF497
S1131120E095E7FB0C944109E92F0E94690958F303
S1131130BA17620773078407950720F079F4A6F5B8
S11311400C948B090EF4E0950B2EBA2FA02D0B01F5
S1131150B90190010C01CA01A0011124FF27591BF8
S113116099F0593F50F4503E68F11A16F040A22FFE
S1131170232F342F4427585FF3CF4695379527956F
S1131180A795F0405395C9F77EF41F16BA0B620B6E
S1131190730B840BBAF09150A1F0FF0FBB1F661FB5
S11311A0771F881FC2F70EC0BA0F621F731F841FF8
S11311B048F4879577956795B795F7959E3F08F01E
S11311C0B0CF9395880F08F09927EE0F97958795E0
S11311D008950E941D0908F481E008950E94710990
S11311E088F09F5798F0B92F9927B751B0F0E1F0E4
S11311F0660F771F881F991F1AF0BA95C9F714C094
S1131200B13091F00E948B09B1E008950C948B09E0
S1131210672F782F8827B85F39F0B93FCCF38695CC
S113122077956795B395D9F73EF490958095709529
S113123061957F4F8F4F9F4F0895990F0008550F69
S1131240AA0BE0E8FEEF16161706E807F907C0F048
S113125012161306E407F50798F0621B730B840B50
S1131260950B39F40A2661F0232B242B252B21F42A
S113127008950A2609F4A140A6958FEF811D811DCA
S1131280089597F99F6780E870E060E008959FEF04
S113129080EC089500240A94161617061806090609
S11312A0089500240A9412161306140605060895D8
S11312B0092E0394000C11F4882352F0BB0F40F460
S11312C0BF2B11F460FF04C06F5F7F4F8F4F9F4FA0
S11312D0089557FD9058440F551F59F05F3F71F022
S11312E04795880F97FB991F61F09F3F79F0879589
S11312F00895121613061406551FF2CF4695F1DF12
S113130008C0161617061806991FF1CF86957105A1
S1131310610508940895E894BB2766277727CB01D5
S113132097F908950E941D0908F48FEF08950E940B
S1131330AA090C9458090E944A0938F00E945109DC
S113134020F0952311F00C9441090C9447091124C1
S11313500C948C090E94690970F3959FC1F3950F51
S113136050E0551F629FF001729FBB27F00DB11D25
S1131370639FAA27F00DB11DAA1F649F6627B00DB5
S1131380A11D661F829F2227B00DA11D621F739F9E
S1131390B00DA11D621F839FA00D611D221F749FAC
S11313A03327A00D611D231F849F600D211D822FF3
S11313B0762F6A2F11249F5750409AF0F1F088231A
S11313C04AF0EE0FFF1FBB1F661F771F881F915047
S11313D05040A9F79E3F510580F00C9441090C94AC
S11313E08C095F3FE4F3983ED4F38695779567952F
S11313F0B795F795E7959F5FC1F7FE2B880F911D71
S11314009695879597F90895BB274A3031F4992327
S113141022F4BDE2909581959F4F0C94100ABB274E
S1131420FB015527AA27880F991FAA1FA41710F09C
S1131430A41B83955051B9F7A05DAA3308F0A95DA8
S1131440A193009779F7B111B1931192CB010C9448
S11314506A0C0F931F93CF93DF93CDB7DEB72E970C
S11314600FB6F894DEBF0FBECDBF0D891E8986E08E
S11314708C831A8309838FEF9FE79E838D83AE014C
S1131480475E5F4F6F89788DCE0101960E94590A9D
S11314902F813885F801E20FF31F10822E960FB6C4
S11314A0F894DEBF0FBECDBFDF91CF911F910F9196
S11314B008952F923F924F925F926F927F928F92F4
S11314C09F92AF92BF92CF92DF92EF92FF920F93CF
S11314D01F93CF93DF93CDB7DEB72C970FB6F89455
S11314E0DEBF0FBECDBF7C016B018A01FC011782F8
S11314F01682838181FFBDC1CE0101964C01F701A3
S11315009381F60193FD859193FF81916F01882367
S113151009F4ABC1853239F493FD859193FF819130
S11315206F01853229F4B70190E00E947A0CE7CF6D
S1131530512C312C20E02032A0F48B3269F030F4AD
S1131540803259F0833269F420612CC08D3239F035
S1131550803339F4216026C02260246023C02860CF
S113156021C027FD27C030ED380F3A3078F426FF2C
S113157006C0FAE05F9E300D1124532E13C08AE09A
S1131580389E300D1124332E20620CC08E3221F48B
S113159026FD6BC1206406C08C3611F4206802C09D
S11315A0883641F4F60193FD859193FF81916F0193
S11315B08111C1CF982F9F7D9554933028F40C5FEF
S11315C01F4FFFE3F9830DC0833631F0833771F089
S11315D0833509F05BC022C0F801808189830E5FE6
S11315E01F4F44244394512C540115C03801F2E098
S11315F06F0E711CF801A080B18026FF03C0652D19
S113160070E002C06FEF7FEFC5012C870E945F0C72
S11316102C0183012C852F77222E17C03801F2E08C
S11316206F0E711CF801A080B18026FF03C0652DE8
S113163070E002C06FEF7FEFC5012C870E94540C4D
S11316402C012C852068222E830123FC1BC0832DB2
S113165090E048165906B0F4B70180E290E00E9489
S11316607A0C3A94F4CFF50127FC859127FE8191F9
S11316705F01B70190E00E947A0C31103A94F1E0D6
S11316804F1A51084114510471F7E5C0843611F022
S1131690893639F5F80127FF07C06081718182819D
S11316A093810C5F1F4F08C060817181072E000C6D
S11316B0880B990B0E5F1F4F2F76722E97FF09C070
S11316C090958095709561957F4F8F4F9F4F2068BF
S11316D0722E2AE030E0A4010E94B20CA82EA818B1
S11316E044C0853729F42F7EB22E2AE030E025C08D
S11316F0F22FF97FBF2E8F36C1F018F4883579F0B8
S1131700B4C0803719F0883721F0AFC02F2F206183
S1131710B22EB4FE0DC08B2D8460B82E09C024FFF8
S11317200AC09F2F9660B92E06C028E030E005C09D
S113173020E130E002C020E132E0F801B7FE07C04A
S113174060817181828193810C5F1F4F06C060812B
S1131750718180E090E00E5F1F4FA4010E94B20CE3
S1131760A82EA818FB2DFF777F2E76FE0BC0372DF1
S11317703E7FA51450F474FE0AC072FC08C0372DD5
S11317803E7E05C0BA2C372D03C0BA2C01C0B52C3F
S113179034FF0DC0FE01EA0DF11D8081803311F488
S11317A0397E09C032FF06C0B394B39404C0832FBA
S11317B0867809F0B39433FD13C030FF06C05A2C69
S11317C0B31418F4530C5B18B32CB31468F4B701B6
S11317D080E290E03C870E947A0CB3943C85F5CF7C
S11317E0B31410F43B1801C0312C34FF12C0B701FC
S11317F080E390E03C870E947A0C3C8532FF17C05E
S113180031FD03C088E790E002C088E590E0B701AD
S11318100CC0832F867859F031FF02C08BE201C0DF
S113182080E237FD8DE2B70190E00E947A0CA514A6
S113183038F4B70180E390E00E947A0C5A94F7CF11
S1131840AA94F401EA0DF11D8081B70190E00E9491
S11318507A0CA110F5CF332009F451CEB70180E200
S113186090E00E947A0C3A94F6CFF7018681978132
S113187002C08FEF9FEF2C960FB6F894DEBF0FBE19
S1131880CDBFDF91CF911F910F91FF90EF90DF902B
S1131890CF90BF90AF909F908F907F906F905F900C
S11318A04F903F902F900895FC0105906150704037
S11318B00110D8F7809590958E0F9F1F0895FC0115
S11318C06150704001900110D8F7809590958E0F6B
S11318D09F1F0895DC01FC01672F71917723E1F7C5
S11318E0329704C07C916D9370836291AE17BF07E9
S11318F0C8F308950F931F93CF93DF93FB012381C4
S113190021FD03C08FEF9FEF28C022FF16C0468140
S11319105781248135814217530744F4A081B18152
S11319209D012F5F3F4F318320838C932681378124
S11319302F5F3F4F3783268310C0EB01092F182FE9
S11319400084F185E02D0995892BE1F68E819F8134
S113195001969F838E83812F902FDF91CF911F91CA
S11319600F910895FA01AA27283051F1203181F10D
S1131970E8946F936E7F6E5F7F4F8F4F9F4FAF4F93
S1131980B1E03ED0B4E03CD0670F781F891F9A1FA6
S1131990A11D680F791F8A1F911DA11D6A0F711D5A
S11319A0811D911DA11D20D009F468943F912AE066
S11319B0269F11243019305D3193DEF6CF0108954E
S11319C0462F4770405D4193B3E00FD0C9F7F6CF7F
S11319D0462F4F70405D4A3318F0495D31FD405247
S11319E0419302D0A9F7EACFB4E0A69597958795DD
S11319F077956795BA95C9F70097610571050895BC
S1131A009B01AC010A2E0694579547953795279567
S1131A10BA95C9F7620F731F841F951FA01D0895FF
S1071A20F894FFCF64
S1131A24C0F9A4B0999282F88098FCFBCDCCCC3E4A
S1131A3401416C61726D2041726D65640025303220
S10F1A44643A253032643A2530326400E4
S9030000FC
