S01B00006261725F67726170685F64656D6F5F736B656C2E7372656351
S11300000C9446000C9465000C9465000C946500F7
S11300100C9465000C9465000C9465000C946500C8
S11300200C9465000C9465000C9465000C946500B8
S11300300C9465000C9465000C9465000C946500A8
S11300400C9479000C9465000C9465000C94650084
S11300500C9465000C9465000C9465000C94650088
S11300600C9465000C9465000C9465000C94650078
S11300700C9465000C9465000C9465000C94650068
S11300800C9465000C9465000C94650011241FBE4B
S1130090CFEFD0E1DEBFCDBF11E0A0E0B1E0E8E8F2
S11300A0F1E000E00BBF02C007900D92A230B1074F
S11300B0D9F721E0A2E0B1E001C01D92A330B2075C
S11300C0E1F70E94B0000C94C2000C94000087B3C6
S11300D0876087BB8DB180658DB9709A089580B7AC
S11300E0886080BF87B7816087BF83B7816083BF23
S11300F008951F920F920FB60F9211242F938F938E
S11301009F93809102018F5F8093020197EE899FF4
S1130110912D1124929596959695937027E4929F2C
S113012080191124882379F080910001811103C082
S113013081E0809300019F918F912F910F900FBECA
S11301400F901F901895809100018FB9779BFECF77
S1130150C09AC09880910001880F80930001E6CF77
S113016080B7886080BF87B7816087BF83B78160AD
S113017083BF87B3876087BB8DB180658DB9709A63
S10B01807894FFCFF894FFCF3F
S1050188010070
S9030000FC
