:100000000C9446000C9465000C9465000C946500FB
:100010000C9465000C9465000C9465000C946500CC
:100020000C9465000C9465000C9465000C946500BC
:100030000C9465000C9465000C9465000C946500AC
:100040000C9479000C9465000C9465000C94650088
:100050000C9465000C9465000C9465000C9465008C
:100060000C9465000C9465000C9465000C9465007C
:100070000C9465000C9465000C9465000C9465006C
:100080000C9465000C9465000C94650011241FBE4F
:10009000CFEFD0E1DEBFCDBF11E0A0E0B1E0E8E6F8
:1000A000F1E000E00BBF02C007900D92A230B10753
:1000B000D9F721E0A2E0B1E001C01D92A330B20760
:1000C000E1F70E94A0000C94B2000C94000087B3EA
:1000D000876087BB8DB180658DB9709A089580B7B0
:1000E000886080BF87B7816087BF83B7816083BF27
:1000F00008951F920F920FB60F9211248F93809143
:1001000002018F5F809302018F7369F0809100017B
:10011000811103C081E0809300018F910F900FBE89
:100120000F901F901895809100018FB9779BFECF9B
:10013000C09AC09880910001880F80930001E8CF99
:1001400080B7886080BF87B7816087BF83B78160D1
:1001500083BF87B3876087BB8DB180658DB9709A87
:080160007894FFCFF894FFCF63
:02016800010094
:00000001FF
