S01100006C6162325F736B656C2E73726563A4
S11300000C9446000C9465000C9465000C946500F7
S11300100C9465000C9465000C9465000C946500C8
S11300200C9465000C9465000C9465000C946500B8
S11300300C9465000C9465000C9465000C946500A8
S11300400C9465000C9465000C9465000C94650098
S11300500C9465000C9465000C9465000C94650088
S11300600C9465000C9465000C9465000C94650078
S11300700C9465000C9465000C9465000C94650068
S11300800C9465000C9465000C94650011241FBE4B
S1130090CFEFD0E1DEBFCDBF11E0A0E0B1E0ECE5F1
S11300A0F3E000E00BBF02C007900D92AC30B10743
S11300B0D9F721E0ACE0B1E001C01D92A132B20752
S11300C0E1F70E9435010C94AC010C940000482F18
S11300D0E82FF0E099B3EE0FFF1FE45FFE4F20819D
S11300E03181220F331F306E892F90E002C0959525
S11300F087954A95E2F781709927282B392B31830C
S1130100208381E02115304F09F080E00895CF93DA
S1130110DF93EC019C01ADECBCEC0E949D01AC01B1
S11301205695479556954795569547959A01220FAA
S1130130331FCA01880F991F880F991F880F991FB1
S1130140820F931FFE01E81BF90BE050FF4F8081E3
S113015080931C019A010E949D019695879596951E
S11301608795969587959C01220F331F880F991FB9
S1130170880F991F880F991F820F931F481B590BD3
S1130180FA01E050FF4F808180931D019E01369556
S1130190279536952795ABE7B4E10E949D01AC0104
S11301A0569547959A01ADECBCEC0E949D0196953D
S11301B0879596958795969587959C01220F331F71
S11301C0880F991F880F991F880F991F820F931FFB
S11301D0481B590BFA01E050FF4F808180931F01A7
S11301E09E01369527953695279536952795A5EC46
S11301F0B0E20E949D01AC01529542954F70452793
S11302005F7045279A01ADECBCEC0E949D01969568
S1130210879596958795969587959C01220F331F10
S1130220880F991F880F991F880F991F820F931F9A
S1130230481B590BFA01E050FF4F80818093200145
S11302408FEF80931E01C83E93E0D90758F4809342
S11302502001C436D10530F480931F012A9710F48D
S113026080931D01DF91CF9108958FEF82B913B868
S113027080EF87BBC0E0D0E0CC24CA9490EFD92EA5
S1130280EE24E394F12C0CE111E08FE99FE0019757
S1130290F1F700C000001ABACBBAD8BAECE0F1E02A
S11302A040E050E005C04F5F5F4F4830510531F1E9
S11302B099B320813181220F331FB901706E292F28
S11302C030E0042E02C0359527950A94E2F7217098
S11302D03327262B372B219331932115304F19F7D0
S11302E0C701042E02C0880F991F0A94E2F7C80FB1
S11302F0D91F4F5F5F4F48305105D1F618BAC11569
S113030084E0D80710F0CF5FD340CE010E9487006D
S1130310CABAECE1F1E08E2F801B91919BBB8295D0
S1130320807F88BB8FE99FE00197F1F700C0000050
S113033091E0E132F90779F7A8CFA29FB001B39F0A
S1130340C001A39F700D811D1124911DB29F700DDA
S10F0350811D1124911D0895F894FFCF25
S10F035CC0F9A4B0999282F88098FF7F49
S9030000FC
