:100000000C9446000C9465000C9465000C946500FB
:100010000C9465000C9465000C9465000C946500CC
:100020000C9465000C9465000C9465000C946500BC
:100030000C9465000C9465000C9465000C946500AC
:100040000C943F020C9465000C9465000C946500C0
:100050000C9465000C9465000C9465000C9465008C
:100060000C9465000C9465000C9465000C9465007C
:100070000C9465000C9465000C9465000C9465006C
:100080000C9465000C9465000C94650011241FBE4F
:10009000CFEFD0E1DEBFCDBF11E0A0E0B1E0EEE6F2
:1000A000F6E000E00BBF02C007900D92AC30B10744
:1000B000D9F721E0ACE0B1E001C01D92AC32B2074B
:1000C000E1F70E94E5020C9435030C94000087E0F0
:1000D00087BB80E58DB981E08EB908951FB8779B05
:1000E000FECF8FB10895482FE82FF0E099B3EE0FBF
:1000F000FF1FED5EFE4F20813181220F331F306ED6
:10010000892F90E002C0959587954A95E2F7817016
:100110009927282B392B3183208381E02115304FFB
:1001200009F080E00895CF93DF93EC019C01ADECE2
:10013000BCEC0E942603AC01569547955695479511
:10014000569547959A01220F331FCA01880F991FB0
:10015000880F991F880F991F820F931FFE01E81BBC
:10016000F90BE050FF4F8081809327019A010E9494
:1001700026039695879596958795969587959C01E4
:10018000220F331F880F991F880F991F880F991FFF
:10019000820F931F481B590BFA01E050FF4F8081DB
:1001A000809328019E013695279536952795ABE7D4
:1001B000B4E10E942603AC01569547959A01ADEC37
:1001C000BCEC0E9426039695879596958795969503
:1001D00087959C01220F331F880F991F880F991F45
:1001E000880F991F820F931F481B590BFA01E0508B
:1001F000FF4F808180932A019E0136952795369581
:10020000279536952795A5ECB0E20E942603AC0110
:10021000529542954F7045275F7045279A01ADEC86
:10022000BCEC0E94260396958795969587959695A2
:1002300087959C01220F331F880F991F880F991FE4
:10024000880F991F820F931F481B590BFA01E0502A
:10025000FF4F808180932B018FEF80932901C83E4F
:1002600093E0D90758F480932B01C436D10530F4BC
:1002700080932A012A9710F480932801DF91CF916F
:100280000895811107C090910F0181E08927809323
:100290000F010895813031F490910F0182E0892798
:1002A00080930F010895882339F0813061F0823006
:1002B00071F0833029F0089581E080930E01089554
:1002C00010920E01089582E080930E01089584E05B
:1002D00080930E0108958FB9779BFECF929A9298E2
:1002E0000895CF93DF9300D000D0CDB7DEB71E9A2C
:1002F0001D988FE99FE00197F1F700C000001D9A5B
:100300001E981FB8779BFECF8FB1982F917099835D
:10031000982F92709B83982F94709A8388708C8307
:100320001092100180911001823008F0A0C080E08E
:1003300062C090911001E1E0F0E0EC0FFD1FE90FC9
:10034000F11D908191117FC090910E01890FE09174
:100350001001F0E090911001A3E0B0E0AC0FBD1FE0
:10036000A90FB11D9C91ED5DFE4F9083209110016E
:10037000E0911001F0E0EB5DFE4F9081E1E0F0E0F4
:10038000EC0FFD1FE20FF11D20812917D9F090918C
:100390001001E1E0F0E0EC0FFD1FE90FF11D90818D
:1003A000992309F454C090911001E3E0F0E0EC0FC0
:1003B000FD1FE90FF11D9081992309F454C090911C
:1003C0000E01890FE0911001F0E090911001A1E081
:1003D000B0E0AC0FBD1FA90FB11D9C91EB5DFE4FAE
:1003E0009083909110019F5F909310019091100164
:1003F000923008F03DC020911001E0911001F0E032
:10040000ED5DFE4F9081E3E0F0E0EC0FFD1FE20FA9
:10041000F11D2081291709F49ACF90911001E3E092
:10042000F0E0EC0FFD1FE90FF11D9081911181CFDC
:1004300090911001E1E0F0E0EC0FFD1FE90FF11DDC
:100440009081911181CF90910E01891B80CF909165
:100450001001E3E0F0E0EC0FFD1FE90FF11D9081CA
:10046000992309F4ACCF90910E01891BABCF80E0AA
:100470000F900F900F900F90DF91CF9108951F92E2
:100480000F920FB60F9211240BB60F921F932F935A
:100490003F934F935F936F937F938F939F93AF930C
:1004A000BF93CF93DF93EF93FF93D8B3CBB3109168
:1004B00010011ABA8FEF8BBB80E788BB1092100136
:1004C00080911001823050F02CC0809110018F5F1C
:1004D0008093100180911001823018F54091100135
:1004E000E42FF0E099B3EE0FFF1FED5EFE4F208189
:1004F0003181220F331F306E892F90E002C0959515
:1005000087954A95E2F781709927822B932B9183E7
:1005100080838115904FC9F6809110010E9441019E
:10052000D4CF81E088BB8FEF8ABB80910F010E94FE
:10053000530180910F018FB9779BFECF929A9298C9
:100540000E9471012091110130911201280F311D7B
:1005500087FD3A953093120120931101809111018A
:100560009091120197FF06C08FEF93E090931201D4
:10057000809311018091110190911201937897FD60
:1005800020C0909312018093110110931001D8BBE9
:100590008FEF8ABBCBBBFF91EF91DF91CF91BF91E2
:1005A000AF919F918F917F916F915F914F913F910B
:1005B0002F911F910F900BBE0F900FBE0F901F90A9
:1005C000189501979C6F0196DCCF87B7816087BF34
:1005D00083B7856083BF87E087BB80E58DB981E005
:1005E0008EB987B3806F87BB81B38FEF81BB92B128
:1005F00082B91E9A7894CFEF18BA80911101909128
:1006000012010E949300CABB109210018091100148
:10061000853090F7E0911001F0E0E95DFE4F8081B8
:100620008BBB809110018295807F88BB8FE99FE012
:100630000197F1F700C00000809110018F5F809357
:10064000100180911001853028F3D6CFA29FB00110
:10065000B39FC001A39F700D811D1124911DB29FF6
:0E066000700D811D1124911D0895F894FFCF97
:0C066E00C0F9A4B0999282F88098FF7F38
:00000001FF
